{
  "contractName": "ProductRegistry",
  "abi": [
    {
      "constant": true,
      "inputs": [],
      "name": "productCount",
      "outputs": [
        {
          "internalType": "uint256",
          "name": "",
          "type": "uint256"
        }
      ],
      "payable": false,
      "stateMutability": "view",
      "type": "function"
    },
    {
      "constant": true,
      "inputs": [
        {
          "internalType": "uint256",
          "name": "",
          "type": "uint256"
        }
      ],
      "name": "products",
      "outputs": [
        {
          "internalType": "string",
          "name": "name",
          "type": "string"
        },
        {
          "internalType": "string",
          "name": "description",
          "type": "string"
        },
        {
          "internalType": "string",
          "name": "price",
          "type": "string"
        }
      ],
      "payable": false,
      "stateMutability": "view",
      "type": "function"
    },
    {
      "constant": false,
      "inputs": [
        {
          "internalType": "string",
          "name": "name",
          "type": "string"
        },
        {
          "internalType": "string",
          "name": "description",
          "type": "string"
        },
        {
          "internalType": "string",
          "name": "price",
          "type": "string"
        }
      ],
      "name": "addProduct",
      "outputs": [],
      "payable": false,
      "stateMutability": "nonpayable",
      "type": "function"
    }
  ],
  "bytecode": "0x608060405234801561001057600080fd5b5061073e806100206000396000f3fe608060405234801561001057600080fd5b50600436106100415760003560e01c80630e34b00e146100465780637acc0b201461022f578063e0f6ef87146103ae575b600080fd5b61022d6004803603606081101561005c57600080fd5b810190808035906020019064010000000081111561007957600080fd5b82018360208201111561008b57600080fd5b803590602001918460018302840111640100000000831117156100ad57600080fd5b91908080601f016020809104026020016040519081016040528093929190818152602001838380828437600081840152601f19601f8201169050808301925050505050505091929192908035906020019064010000000081111561011057600080fd5b82018360208201111561012257600080fd5b8035906020019184600183028401116401000000008311171561014457600080fd5b91908080601f016020809104026020016040519081016040528093929190818152602001838380828437600081840152601f19601f820116905080830192505050505050509192919290803590602001906401000000008111156101a757600080fd5b8201836020820111156101b957600080fd5b803590602001918460018302840111640100000000831117156101db57600080fd5b91908080601f016020809104026020016040519081016040528093929190818152602001838380828437600081840152601f19601f8201169050808301925050505050505091929192905050506103cc565b005b61025b6004803603602081101561024557600080fd5b810190808035906020019092919050505061046c565b60405180806020018060200180602001848103845287818151815260200191508051906020019080838360005b838110156102a3578082015181840152602081019050610288565b50505050905090810190601f1680156102d05780820380516001836020036101000a031916815260200191505b50848103835286818151815260200191508051906020019080838360005b838110156103095780820151818401526020810190506102ee565b50505050905090810190601f1680156103365780820380516001836020036101000a031916815260200191505b50848103825285818151815260200191508051906020019080838360005b8381101561036f578082015181840152602081019050610354565b50505050905090810190601f16801561039c5780820380516001836020036101000a031916815260200191505b50965050505050505060405180910390f35b6103b661065e565b6040518082815260200191505060405180910390f35b60016000815480929190600101919050555060405180606001604052808481526020018381526020018281525060008060015481526020019081526020016000206000820151816000019080519060200190610429929190610664565b506020820151816001019080519060200190610446929190610664565b506040820151816002019080519060200190610463929190610664565b50905050505050565b6000602052806000526040600020600091509050806000018054600181600116156101000203166002900480601f0160208091040260200160405190810160405280929190818152602001828054600181600116156101000203166002900480156105185780601f106104ed57610100808354040283529160200191610518565b820191906000526020600020905b8154815290600101906020018083116104fb57829003601f168201915b505050505090806001018054600181600116156101000203166002900480601f0160208091040260200160405190810160405280929190818152602001828054600181600116156101000203166002900480156105b65780601f1061058b576101008083540402835291602001916105b6565b820191906000526020600020905b81548152906001019060200180831161059957829003601f168201915b505050505090806002018054600181600116156101000203166002900480601f0160208091040260200160405190810160405280929190818152602001828054600181600116156101000203166002900480156106545780601f1061062957610100808354040283529160200191610654565b820191906000526020600020905b81548152906001019060200180831161063757829003601f168201915b5050505050905083565b60015481565b828054600181600116156101000203166002900490600052602060002090601f016020900481019282601f106106a557805160ff19168380011785556106d3565b828001600101855582156106d3579182015b828111156106d25782518255916020019190600101906106b7565b5b5090506106e091906106e4565b5090565b61070691905b808211156107025760008160009055506001016106ea565b5090565b9056fea265627a7a72315820a2180d78cff307a3b16477ed439ee63a918ad12d2ff54f196e264425151c1e3864736f6c63430005100032",
  "source": "pragma solidity ^0.5.16;\r\n\r\ncontract ProductRegistry {\r\n    struct Product {\r\n        string name;\r\n        string description;\r\n        string price;\r\n    }\r\n\r\n    mapping(uint => Product) public products;\r\n    uint public productCount;\r\n\r\n    function addProduct(string memory name, string memory description, string memory price) public {\r\n        productCount++;\r\n        products[productCount] = Product(name, description, price);\r\n    }\r\n}\r\n",
  "sourcePath": "C:\\xampp\\htdocs\\webbanhang\\blockchain\\contracts\\ProductRegistry.sol",
  "compiler": {
    "name": "solc",
    "version": "0.5.16+commit.9c3226ce.Emscripten.clang"
  },
  "schemaVersion": "3.4.16",
  "updatedAt": "2024-08-21T09:23:32.544Z",
  "networkType": "ethereum",
  "devdoc": {
    "methods": {}
  },
  "userdoc": {
    "methods": {}
  }
}